:040000004BEF00F0D2
:10000800FACF0DF0FBCF0EF0E9CF0FF0EACF10F0EA
:10001800E1CF11F0E2CF12F0D9CF13F0DACF14F01C
:10002800F3CF15F0F4CF16F0F6CF17F0F7CF18F09E
:10003800F8CF19F0F5CF1AF09EA007D09E905B0676
:100048005B6608D0010E5B6E05D09EAC03D09E9C0B
:10005800EDEC89F01AC0F5FF19C0F8FF18C0F7FFDA
:1000680017C0F6FF16C0F4FF15C0F3FF14C0DAFF7F
:1000780013C0D9FF12C0E2FF11C0E1FF10C0EAFFB0
:100088000FC0E9FF0EC0FBFF0DC0FAFF1100D8EF4B
:020098008AF0EC
:10FDCC0000000000000000005F00000007000700BA
:10FDDC00147F147F14242A7F2A122313086462369A
:10FDEC00495522500005030000001C22410000412F
:10FDFC00221C00082A1C2A0808083E08080050305B
:10FE0C0000000808080808006060000020100804C2
:10FE1C00023E5149453E00427F40004261514946F5
:10FE2C002141454B311814127F1027454545393C6B
:10FE3C004A49493001710905033649494936064991
:10FE4C0049291E0036360000005636000000081402
:10FE5C0022411414141414412214080002015109F3
:10FE6C0006324979413E7E1111117E7F494949364E
:10FE7C003E414141227F4141221C7F494949417FFA
:10FE8C00090901013E414151327F0808087F0041B8
:10FE9C007F41002040413F017F081422417F4040B8
:10FEAC0040407F0204027F7F0408107F3E414141A5
:10FEBC003E7F090909063E4151215E7F09192946F9
:10FECC00464949493101017F01013F4040403F1FF4
:10FEDC002040201F7F2018207F6314081463030424
:10FEEC00780403615149454300007F4141020408F5
:10FEFC00102041417F0000040201020440404040B8
:10FF0C0040000102040020545454787F4844443883
:10FF1C003844444420384444487F385454541808D6
:10FF2C007E090102081454543C7F080404780044F0
:10FF3C007D40002040443D00007F10284400417F5C
:10FF4C0040007C041804787C080404783844444449
:10FF5C00387C14141408081414187C7C0804040845
:10FF6C004854545420043F4440203C4040207C1CC6
:10FF7C002040201C3C4030403C44281028440C506D
:10FF8C0050503C4464544C44000836410000007FFF
:10FF9C000000004136080008082A1C08081C2A0822
:10FFAC000801000A006400E8031027203730307580
:10FFBC00732F64697620002046616C6C696E672033
:10FFCC000020526973696E6720002031562F6469D6
:10FFDC00762000204E4F524D2000204155544F208A
:10FFEC00002564206D56003000310032003300349F
:04FFFC00003E0000C3
:020000040001F9
:10000000010E3A6E000E316E000E306E000E336E31
:10001000000E326E000E356E010E346E000E376E1D
:10002000020E366E000E396E000E386E000E3C6EFB
:10003000FA0E3B6E3CEC8BF02BEC8BF08A9A8B9893
:100040008B9A8B9C8B9E899E899C8B948B96939A82
:10005000939093929498949A949C949E929E929C3E
:10006000949494963BC020F03CC021F01BEC8BF0A4
:10007000000E1C6E000E1B6E000E1E6E000E1D6E1E
:10008000000E206E000E1F6E000E226E000E216EFE
:10009000000E246E000E236E000E266E000E256EDE
:1000A000000E286E000E276E000E2A6E000E296EBE
:1000B0004AEC89F0000E216E010E206E1BEC8BF0D5
:1000C000000E1C6E000E1B6E000E1E6E020E1D6ECC
:1000D000000E206E020E1F6E000E226E020E216EAA
:1000E000000E246E020E236E000E266E020E256E8A
:1000F000000E286E020E276E000E2A6E010E296E6B
:100100004AEC89F03BC020F03CC021F01BEC8BF0A6
:10011000000E1C6E000E1B6E000E1E6E020E1D6E7B
:10012000000E206E020E1F6E000E226E020E216E59
:10013000000E246E020E236E000E266E020E256E39
:10014000000E286E010E276E000E2A6E020E296E1A
:100150004AEC89F03BC020F03CC021F01BEC8BF056
:10016000000E1C6E000E1B6E000E1E6E020E1D6E2B
:10017000000E206E020E1F6E000E226E020E216E09
:10018000000E246E020E236E000E266E010E256EEA
:10019000000E286E020E276E000E2A6E020E296EC9
:1001A0004AEC89F03BC020F03CC021F01BEC8BF006
:1001B000000E1C6E000E1B6E000E1E6E020E1D6EDB
:1001C000000E206E020E1F6E000E226E020E216EB9
:1001D000000E246E010E236E000E266E020E256E9A
:1001E000000E286E020E276E000E2A6E020E296E79
:1001F0004AEC89F03BC020F03CC021F01BEC8BF0B6
:10020000000E1C6E000E1B6E000E1E6E020E1D6E8A
:10021000000E206E020E1F6E000E226E010E216E69
:10022000000E246E020E236E000E266E020E256E48
:10023000000E286E020E276E000E2A6E020E296E28
:100240004AEC89F03BC020F03CC021F01BEC8BF065
:10025000000E1C6E000E1B6E000E1E6E020E1D6E3A
:10026000000E206E010E1F6E000E226E020E216E19
:10027000000E246E020E236E000E266E020E256EF8
:10028000000E286E020E276E000E2A6E020E296ED8
:100290004AEC89F03BC020F03CC021F01BEC8BF015
:1002A000000E1C6E000E1B6E000E1E6E010E1D6EEB
:1002B000000E206E020E1F6E000E226E020E216EC8
:1002C000000E246E020E236E000E266E020E256EA8
:1002D000000E286E020E276E000E2A6E020E296E88
:1002E0004AEC89F03BC020F03CC021F01BEC8BF0C5
:1002F000000E1C6E020E1B6E000E1E6E000E1D6E9A
:10030000000E206E020E1F6E000E226E020E216E77
:10031000000E246E020E236E000E266E020E256E57
:10032000000E286E020E276E000E2A6E010E296E38
:100330004AEC89F03BC020F03CC021F01BEC8BF074
:10034000000E1C6E020E1B6E000E1E6E000E1D6E49
:10035000000E206E020E1F6E000E226E020E216E27
:10036000000E246E020E236E000E266E020E256E07
:10037000000E286E010E276E000E2A6E020E296EE8
:100380004AEC89F03BC020F03CC021F01BEC8BF024
:10039000000E1C6E020E1B6E000E1E6E000E1D6EF9
:1003A000000E206E020E1F6E000E226E020E216ED7
:1003B000000E246E020E236E000E266E010E256EB8
:1003C000000E286E020E276E000E2A6E020E296E97
:1003D0004AEC89F03BC020F03CC021F01BEC8BF0D4
:1003E000000E1C6E020E1B6E000E1E6E000E1D6EA9
:1003F000000E206E020E1F6E000E226E020E216E87
:10040000000E246E010E236E000E266E020E256E67
:10041000000E286E020E276E000E2A6E020E296E46
:100420004AEC89F03BC020F03CC021F01BEC8BF083
:10043000000E1C6E020E1B6E000E1E6E000E1D6E58
:10044000000E206E020E1F6E000E226E010E216E37
:10045000000E246E020E236E000E266E020E256E16
:10046000000E286E020E276E000E2A6E020E296EF6
:100470004AEC89F03BC020F03CC021F01BEC8BF033
:10048000000E1C6E020E1B6E000E1E6E000E1D6E08
:10049000000E206E010E1F6E000E226E020E216EE7
:1004A000000E246E020E236E000E266E020E256EC6
:1004B000000E286E020E276E000E2A6E020E296EA6
:1004C0004AEC89F03BC020F03CC021F01BEC8BF0E3
:1004D000000E1C6E010E1B6E000E1E6E000E1D6EB9
:1004E000000E206E020E1F6E000E226E020E216E96
:1004F000000E246E020E236E000E266E020E256E76
:10050000000E286E020E276E000E2A6E020E296E55
:100510004AEC89F03BC020F03CC021F01BEC8BF092
:10052000000E1C6E020E1B6E000E1E6E020E1D6E65
:10053000000E206E000E1F6E000E226E020E216E47
:10054000000E246E020E236E000E266E020E256E25
:10055000000E286E020E276E000E2A6E010E296E06
:100560004AEC89F03BC020F03CC021F01BEC8BF042
:10057000000E1C6E020E1B6E000E1E6E020E1D6E15
:10058000000E206E000E1F6E000E226E020E216EF7
:10059000000E246E020E236E000E266E020E256ED5
:1005A000000E286E010E276E000E2A6E020E296EB6
:1005B0004AEC89F03BC020F03CC021F01BEC8BF0F2
:1005C000000E1C6E020E1B6E000E1E6E020E1D6EC5
:1005D000000E206E000E1F6E000E226E020E216EA7
:1005E000000E246E020E236E000E266E010E256E86
:1005F000000E286E020E276E000E2A6E020E296E65
:100600004AEC89F03BC020F03CC021F01BEC8BF0A1
:10061000000E1C6E020E1B6E000E1E6E020E1D6E74
:10062000000E206E000E1F6E000E226E020E216E56
:10063000000E246E010E236E000E266E020E256E35
:10064000000E286E020E276E000E2A6E020E296E14
:100650004AEC89F03BC020F03CC021F01BEC8BF051
:10066000000E1C6E020E1B6E000E1E6E020E1D6E24
:10067000000E206E000E1F6E000E226E010E216E07
:10068000000E246E020E236E000E266E020E256EE4
:10069000000E286E020E276E000E2A6E020E296EC4
:1006A0004AEC89F03BC020F03CC021F01BEC8BF001
:1006B000000E1C6E020E1B6E000E1E6E010E1D6ED5
:1006C000000E206E000E1F6E000E226E020E216EB6
:1006D000000E246E020E236E000E266E020E256E94
:1006E000000E286E020E276E000E2A6E020E296E74
:1006F0004AEC89F03BC020F03CC021F01BEC8BF0B1
:10070000000E1C6E010E1B6E000E1E6E020E1D6E84
:10071000000E206E000E1F6E000E226E020E216E65
:10072000000E246E020E236E000E266E020E256E43
:10073000000E286E020E276E000E2A6E020E296E23
:100740004AEC89F03BC020F03CC021F01BEC8BF060
:10075000000E1C6E020E1B6E000E1E6E020E1D6E33
:10076000000E206E020E1F6E000E226E000E216E15
:10077000000E246E020E236E000E266E020E256EF3
:10078000000E286E020E276E000E2A6E010E296ED4
:100790004AEC89F03BC020F03CC021F01BEC8BF010
:1007A000000E1C6E020E1B6E000E1E6E020E1D6EE3
:1007B000000E206E020E1F6E000E226E000E216EC5
:1007C000000E246E020E236E000E266E020E256EA3
:1007D000000E286E010E276E000E2A6E020E296E84
:1007E0004AEC89F03BC020F03CC021F01BEC8BF0C0
:1007F000000E1C6E020E1B6E000E1E6E020E1D6E93
:10080000000E206E020E1F6E000E226E000E216E74
:10081000000E246E020E236E000E266E010E256E53
:10082000000E286E020E276E000E2A6E020E296E32
:100830004AEC89F03BC020F03CC021F01BEC8BF06F
:10084000000E1C6E020E1B6E000E1E6E020E1D6E42
:10085000000E206E020E1F6E000E226E000E216E24
:10086000000E246E010E236E000E266E020E256E03
:10087000000E286E020E276E000E2A6E020E296EE2
:100880004AEC89F03BC020F03CC021F01BEC8BF01F
:10089000000E1C6E020E1B6E000E1E6E020E1D6EF2
:1008A000000E206E010E1F6E000E226E000E216ED5
:1008B000000E246E020E236E000E266E020E256EB2
:1008C000000E286E020E276E000E2A6E020E296E92
:1008D0004AEC89F03BC020F03CC021F01BEC8BF0CF
:1008E000000E1C6E020E1B6E000E1E6E010E1D6EA3
:1008F000000E206E020E1F6E000E226E000E216E84
:10090000000E246E020E236E000E266E020E256E61
:10091000000E286E020E276E000E2A6E020E296E41
:100920004AEC89F03BC020F03CC021F01BEC8BF07E
:10093000000E1C6E010E1B6E000E1E6E020E1D6E52
:10094000000E206E020E1F6E000E226E000E216E33
:10095000000E246E020E236E000E266E020E256E11
:10096000000E286E020E276E000E2A6E020E296EF1
:100970004AEC89F03BC020F03CC021F01BEC8BF02E
:10098000000E1C6E020E1B6E000E1E6E020E1D6E01
:10099000000E206E020E1F6E000E226E020E216EE1
:1009A000000E246E000E236E000E266E020E256EC3
:1009B000000E286E020E276E000E2A6E010E296EA2
:1009C0004AEC89F03BC020F03CC021F01BEC8BF0DE
:1009D000000E1C6E020E1B6E000E1E6E020E1D6EB1
:1009E000000E206E020E1F6E000E226E020E216E91
:1009F000000E246E000E236E000E266E020E256E73
:100A0000000E286E010E276E000E2A6E020E296E51
:100A10004AEC89F03BC020F03CC021F01BEC8BF08D
:100A2000000E1C6E020E1B6E000E1E6E020E1D6E60
:100A3000000E206E020E1F6E000E226E020E216E40
:100A4000000E246E000E236E000E266E010E256E23
:100A5000000E286E020E276E000E2A6E020E296E00
:100A60004AEC89F03BC020F03CC021F01BEC8BF03D
:100A7000000E1C6E020E1B6E000E1E6E020E1D6E10
:100A8000000E206E020E1F6E000E226E010E216EF1
:100A9000000E246E000E236E000E266E020E256ED2
:100AA000000E286E020E276E000E2A6E020E296EB0
:100AB0004AEC89F03BC020F03CC021F01BEC8BF0ED
:100AC000000E1C6E020E1B6E000E1E6E020E1D6EC0
:100AD000000E206E010E1F6E000E226E020E216EA1
:100AE000000E246E000E236E000E266E020E256E82
:100AF000000E286E020E276E000E2A6E020E296E60
:100B00004AEC89F03BC020F03CC021F01BEC8BF09C
:100B1000000E1C6E020E1B6E000E1E6E010E1D6E70
:100B2000000E206E020E1F6E000E226E020E216E4F
:100B3000000E246E000E236E000E266E020E256E31
:100B4000000E286E020E276E000E2A6E020E296E0F
:100B50004AEC89F03BC020F03CC021F01BEC8BF04C
:100B6000000E1C6E010E1B6E000E1E6E020E1D6E20
:100B7000000E206E020E1F6E000E226E020E216EFF
:100B8000000E246E000E236E000E266E020E256EE1
:100B9000000E286E020E276E000E2A6E020E296EBF
:100BA0004AEC89F03BC020F03CC021F01BEC8BF0FC
:100BB000000E1C6E020E1B6E000E1E6E020E1D6ECF
:100BC000000E206E020E1F6E000E226E020E216EAF
:100BD000000E246E020E236E000E266E000E256E91
:100BE000000E286E020E276E000E2A6E010E296E70
:100BF0004AEC89F03BC020F03CC021F01BEC8BF0AC
:100C0000000E1C6E020E1B6E000E1E6E020E1D6E7E
:100C1000000E206E020E1F6E000E226E020E216E5E
:100C2000000E246E020E236E000E266E000E256E40
:100C3000000E286E010E276E000E2A6E020E296E1F
:100C40004AEC89F03BC020F03CC021F01BEC8BF05B
:100C5000000E1C6E020E1B6E000E1E6E020E1D6E2E
:100C6000000E206E020E1F6E000E226E020E216E0E
:100C7000000E246E010E236E000E266E000E256EF1
:100C8000000E286E020E276E000E2A6E020E296ECE
:100C90004AEC89F03BC020F03CC021F01BEC8BF00B
:100CA000000E1C6E020E1B6E000E1E6E020E1D6EDE
:100CB000000E206E020E1F6E000E226E010E216EBF
:100CC000000E246E020E236E000E266E000E256EA0
:100CD000000E286E020E276E000E2A6E020E296E7E
:100CE0004AEC89F03BC020F03CC021F01BEC8BF0BB
:100CF000000E1C6E020E1B6E000E1E6E020E1D6E8E
:100D0000000E206E010E1F6E000E226E020E216E6E
:100D1000000E246E020E236E000E266E000E256E4F
:100D2000000E286E020E276E000E2A6E020E296E2D
:100D30004AEC89F03BC020F03CC021F01BEC8BF06A
:100D4000000E1C6E020E1B6E000E1E6E010E1D6E3E
:100D5000000E206E020E1F6E000E226E020E216E1D
:100D6000000E246E020E236E000E266E000E256EFF
:100D7000000E286E020E276E000E2A6E020E296EDD
:100D80004AEC89F03BC020F03CC021F01BEC8BF01A
:100D9000000E1C6E020E1B6E000E1E6E010E1D6EEE
:100DA000000E206E020E1F6E000E226E020E216ECD
:100DB000000E246E020E236E000E266E000E256EAF
:100DC000000E286E020E276E000E2A6E020E296E8D
:100DD0004AEC89F03BC020F03CC021F01BEC8BF0CA
:100DE000000E1C6E010E1B6E000E1E6E020E1D6E9E
:100DF000000E206E020E1F6E000E226E020E216E7D
:100E0000000E246E020E236E000E266E000E256E5E
:100E1000000E286E020E276E000E2A6E020E296E3C
:100E20004AEC89F03BC020F03CC021F01BEC8BF079
:100E3000000E1C6E020E1B6E000E1E6E020E1D6E4C
:100E4000000E206E020E1F6E000E226E020E216E2C
:100E5000000E246E020E236E000E266E020E256E0C
:100E6000000E286E000E276E000E2A6E010E296EEF
:100E70004AEC89F03BC020F03CC021F01BEC8BF029
:100E8000000E1C6E020E1B6E000E1E6E020E1D6EFC
:100E9000000E206E020E1F6E000E226E020E216EDC
:100EA000000E246E020E236E000E266E010E256EBD
:100EB000000E286E000E276E000E2A6E020E296E9E
:100EC0004AEC89F03BC020F03CC021F01BEC8BF0D9
:100ED000000E1C6E020E1B6E000E1E6E020E1D6EAC
:100EE000000E206E020E1F6E000E226E020E216E8C
:100EF000000E246E010E236E000E266E020E256E6D
:100F0000000E286E000E276E000E2A6E020E296E4D
:100F10004AEC89F03BC020F03CC021F01BEC8BF088
:100F2000000E1C6E020E1B6E000E1E6E020E1D6E5B
:100F3000000E206E020E1F6E000E226E010E216E3C
:100F4000000E246E020E236E000E266E020E256E1B
:100F5000000E286E000E276E000E2A6E020E296EFD
:100F60004AEC89F03BC020F03CC021F01BEC8BF038
:100F7000000E1C6E020E1B6E000E1E6E020E1D6E0B
:100F8000000E206E010E1F6E000E226E020E216EEC
:100F9000000E246E020E236E000E266E020E256ECB
:100FA000000E286E000E276E000E2A6E020E296EAD
:100FB0004AEC89F03BC020F03CC021F01BEC8BF0E8
:100FC000000E1C6E020E1B6E000E1E6E010E1D6EBC
:100FD000000E206E020E1F6E000E226E020E216E9B
:100FE000000E246E020E236E000E266E020E256E7B
:100FF000000E286E000E276E000E2A6E020E296E5D
:101000004AEC89F03BC020F03CC021F01BEC8BF097
:10101000000E1C6E010E1B6E000E1E6E020E1D6E6B
:10102000000E206E020E1F6E000E226E020E216E4A
:10103000000E246E020E236E000E266E020E256E2A
:10104000000E286E000E276E000E2A6E020E296E0C
:101050004AEC89F03BC020F03CC021F01BEC8BF047
:10106000000E1C6E020E1B6E000E1E6E020E1D6E1A
:10107000000E206E020E1F6E000E226E020E216EFA
:10108000000E246E020E236E000E266E020E256EDA
:10109000000E286E010E276E000E2A6E000E296EBD
:1010A0004AEC89F03BC020F03CC021F01BEC8BF0F7
:1010B000000E1C6E020E1B6E000E1E6E020E1D6ECA
:1010C000000E206E020E1F6E000E226E020E216EAA
:1010D000000E246E020E236E000E266E010E256E8B
:1010E000000E286E020E276E000E2A6E000E296E6C
:1010F0004AEC89F03BC020F03CC021F01BEC8BF0A7
:10110000000E1C6E020E1B6E000E1E6E020E1D6E79
:10111000000E206E020E1F6E000E226E020E216E59
:10112000000E246E010E236E000E266E020E256E3A
:10113000000E286E020E276E000E2A6E000E296E1B
:101140004AEC89F03BC020F03CC021F01BEC8BF056
:10115000000E1C6E020E1B6E000E1E6E020E1D6E29
:10116000000E206E020E1F6E000E226E010E216E0A
:10117000000E246E020E236E000E266E020E256EE9
:10118000000E286E020E276E000E2A6E000E296ECB
:101190004AEC89F03BC020F03CC021F01BEC8BF006
:1011A000000E1C6E020E1B6E000E1E6E020E1D6ED9
:1011B000000E206E010E1F6E000E226E020E216EBA
:1011C000000E246E020E236E000E266E020E256E99
:1011D000000E286E020E276E000E2A6E000E296E7B
:1011E0004AEC89F03BC020F03CC021F01BEC8BF0B6
:1011F000000E1C6E020E1B6E000E1E6E010E1D6E8A
:10120000000E206E020E1F6E000E226E020E216E68
:10121000000E246E020E236E000E266E020E256E48
:10122000000E286E020E276E000E2A6E000E296E2A
:101230004AEC89F03BC020F03CC021F01BEC8BF065
:10124000000E1C6E010E1B6E000E1E6E020E1D6E39
:10125000000E206E020E1F6E000E226E020E216E18
:10126000000E246E020E236E000E266E020E256EF8
:10127000000E286E020E276E000E2A6E000E296EDA
:101280004AEC89F03BC020F03CC021F01BEC8BF015
:1012900032EF80F09498949A949C949E929E929CA3
:1012A000949494968A7A1C501B10D8A403D09498D6
:1012B0008B980CD01B041C10D8A403D094988B8856
:1012C00005D01B50020A1C10D8B494881E501D1063
:1012D000D8A403D0949A8B9A0CD01D041E10D8A4C5
:1012E00003D0949A8B8A05D01D50020A1E10D8B4E0
:1012F000948A20501F10D8A403D0949C8B9C0CD0AF
:101300001F042010D8A403D0949C8B8C05D01F50B0
:10131000020A2010D8B4948C22502110D8A403D0F3
:10132000949E8B9E0CD021042210D8A403D0949EAE
:101330008B8E05D02150020A2210D8B4948E2450EE
:101340002310D8A403D0929E899E0CD0230424108D
:10135000D8A403D0929E898E05D02350020A24106F
:10136000D8B4928E26502510D8A403D0929C899C84
:101370000CD025042610D8A403D0929C898C05D0CB
:101380002550020A2610D8B4928C28502710D8A4D1
:1013900003D094948B940CD027042810D8A403D0A5
:1013A00094948B8405D02750020A2810D8B49484D2
:1013B0002A502910D8A403D094968B9612002904A1
:1013C0002A10D8A403D094968B8612002950020AC2
:1013D0002A10D8A4120094861200000E0B6E000E84
:1013E0000C6E37EC8BF001C053F002C054F05C6619
:1013F00012005AC001F0026A010E046E340E036E30
:10140000F7EC8AF0480E096E0C0E0A6E01500926A0
:1014100002500A2255500924D96E56500A20DA6E1D
:10142000DF500C6E5AC001F0026A010E046E340ED9
:10143000036EF7EC8AF0480E096E0C0E0A6E01502E
:10144000092602500A2255500924D96E56500A2006
:10145000DA6ED8905334016E5434026E000E046E6E
:101460000D0E036E86EC8AF001500B0FDF6E554AAD
:10147000562A5AC001F0026A010E046E340E036E41
:10148000F7EC8AF0480E096E0C0E0A6E0150092620
:1014900002500A2255500924D96E56500A20DA6E9D
:1014A000DF500B6E0C505F5CD8A00CD05F500B5C13
:1014B000D8A008D050504F10D8A404D0000E466ECB
:1014C000010E456E5F500C5CD8A00CD00B505F5CD9
:1014D000D8A008D046504510D8A404D0000E506EB5
:1014E000010E4F6E5604340ED8B45518D8A412000D
:1014F0005A50D8A402D0010E01D0000E5A6E000E30
:10150000566E000E556E010E5C6E1200000E066ED9
:101510000450800AF36E800EF35C000ED8B4035CB6
:10152000D8B006D0036C041ED8B0042A010E066E93
:101530000250800AF36E800EF35C000ED8B4015C9A
:10154000D8B006D0016C021ED8B0022A010E061ACD
:10155000000E086E000E076E04500310D8B41CD0A5
:10156000010E056E04D0D89003360436052A04AE69
:10157000FAD7D890073608360350015C0450025859
:10158000D8A005D00350015E0450025A0780D890BD
:1015900004320332052EEDD70650D8B404D0076CC0
:1015A000081ED8B0082A07C001F008C002F01200D7
:1015B0000CEE48F012EE68F0EE6AE550E150FCE106
:1015C000E250FAE100EE3DF0210EEE6AE806FDE1A0
:1015D0007E0EF66E160EF76E010EF86E0900F5CF50
:1015E0005EF00900F5CF5FF0000100EF80F00150E0
:1015F0000302F3CF05F0F4CF06F001500402F350DC
:10160000062602500302F350062605C001F006C06C
:1016100002F012001CC01DF01DC01EF01F6A1E50FB
:10162000D76E1BC0D6FFF294830ED56EF2A4FED700
:10163000000ED56E120006D0FD0E1C6E120E1B6E33
:101640000AEC8BF02006D8A021062028D8B4212847
:10165000D8B41200F1D79E90000ECF6E000ECE6E61
:101660008E0ECD6E9D80F28CF28ECD801200C45015
:10167000026EC350016E1200000ED56E120040645F
:08FFF800ACF43AF0F7FBFFF353
:00000001FF
